:100000000C9434000C9446000C9446000C9446006A
:100010000C9499000C9446000C9446000C944600F5
:100020000C9446000C9446000C9446000C94460038
:100030000C9446000C9446000C9446000C94460028
:100040000C945F000C9446000C9446000C944600FF
:100050000C9446000C9446000C9446000C94460008
:100060000C9446000C94460011241FBECFEFD8E03C
:10007000DEBFCDBF21E0A0E0B1E001C01D92A33002
:10008000B207E1F70E94B7000C94D5000C94000071
:100090008091020110920201089588B18F6088B9A1
:1000A00082E080936800ECE6F0E080818F608083DE
:1000B00087E08BBB14BC95E095BD85BB08951F926E
:1000C0000F920FB60F9211248F939F93809100018E
:1000D0008F5F8093000180910001853019F596B102
:1000E0008091010198131AC0309904C081E0809377
:1000F000020114C0319904C082E0809302010EC055
:10010000329904C083E08093020108C0339904C08F
:1001100084E08093020102C010920201109200015B
:1001200010926E009F918F910F900FBE0F901F90B5
:1001300018951F920F920FB60F9211248F9386B1CC
:100140008F3041F086B1809301011092000181E06F
:1001500080936E008F910F900FBE0F901F90189597
:1001600095B180E2892785B90895259A08950E945E
:100170004D000E94B50078940E944800823061F0E2
:1001800018F4813031F0F8CF833049F0843051F0E9
:10019000F3CF0E94B000F0CF0E94B000EDCF0E94DC
:0E01A000B000EACF0E94B000E7CFF894FFCF86
:00000001FF
