:100000000C9434000C9451000C9451000C94510049
:100010000C949F000C9451000C9451000C945100CE
:100020000C9451000C9451000C9451000C9451000C
:100030000C9451000C9451000C9451000C945100FC
:100040000C9465000C9451000C9451000C945100D8
:100050000C9451000C9451000C9451000C945100DC
:100060000C9451000C94510011241FBECFEFD8E026
:10007000DEBFCDBF11E0A0E0B1E0EEE5F2E002C0EE
:1000800005900D92A030B107D9F721E0A0E0B1E0D2
:1000900001C01D92A330B207E1F70E94BD000C948D
:1000A0002D010C94000088B18F6088B982E08093A4
:1000B0006800ECE6F0E080818F60808387E08BBB96
:1000C00014BC95E095BD85BB08951F920F920FB6A5
:1000D0000F9211248F939F93809100018F5F8093E3
:1000E000000180910001853019F596B180910101E0
:1000F00098131AC0309904C081E08093020114C0A3
:10010000319904C082E0809302010EC0329904C08C
:1001100083E08093020108C0339904C084E0809397
:10012000020102C0109202011092000110926E00B2
:100130009F918F910F900FBE0F901F9018951F9257
:100140000F920FB60F9211248F9386B18F3041F02A
:1001500086B1809301011092000181E080936E00CE
:100160008F910F900FBE0F901F90189595B180E260
:10017000892785B90895259A08950E9453000E9401
:10018000BB000E9411017894C1E6D1E60E94B6003E
:10019000C73628F48C2F0E940201CF5F03C00E9453
:1001A0000D01CD2F2FEF83ED90E321508040904043
:1001B000E1F700C00000EACF2A9A9BB1282F2295D0
:1001C0002F70907F922B9BB92A989BB1907F9BB9FF
:1001D00095E09A95F1F700002A9A9BB18F70907F75
:1001E000892B8BB92A9885E08A95F1F700002A9827
:1001F0008BB1807F8BB98FE39FE10197F1F700C04E
:1002000000000895289A0E94DC00289887EC90E06E
:100210000197F1F700C00000089581E00E94DC0022
:1002200008958FE08AB987E284B985B185B92FEF47
:1002300080E792E0215080409040E1F700C000004C
:1002400082E20E94DC0088E20E94DC008FE00E94D3
:0E025000DC0081E00E94DC000895F894FFCFEE
:00000001FF
