:100000000C9434000C9451000C9451000C94510049
:100010000C949F000C9451000C9451000C945100CE
:100020000C9451000C9451000C9451000C9451000C
:100030000C9451000C9451000C9454010C945100F8
:100040000C9465000C9451000C9451000C945100D8
:100050000C9451000C9451000C9451000C945100DC
:100060000C9451000C94510011241FBECFEFD8E026
:10007000DEBFCDBF11E0A0E0B1E0E0ECF2E002C0F5
:1000800005900D92A030B107D9F721E0A0E0B1E0D2
:1000900001C01D92A330B207E1F70E94BD000C948D
:1000A0005E010C94000088B18F6088B982E0809373
:1000B0006800ECE6F0E080818F60808387E08BBB96
:1000C00014BC95E095BD85BB08951F920F920FB6A5
:1000D0000F9211248F939F93809100018F5F8093E3
:1000E000000180910001853019F596B180910101E0
:1000F00098131AC0309904C081E08093020114C0A3
:10010000319904C082E0809302010EC0329904C08C
:1001100083E08093020108C0339904C084E0809397
:10012000020102C0109202011092000110926E00B2
:100130009F918F910F900FBE0F901F9018951F9257
:100140000F920FB60F9211248F9386B18F3041F02A
:1001500086B1809301011092000181E080936E00CE
:100160008F910F900FBE0F901F90189595B180E260
:10017000892785B90895259A08950E9453000E9401
:10018000BB000E9426010E9449017894569A11E60C
:100190000F2EF1E6EF2EF02DF12C00E00E94B600BC
:1001A000173628F4812F0E9417011F5F03C00E9499
:1001B00022011E2DCF2DD02FCE010E9442018C2F67
:1001C00080630E9417019FEF27EA81E6915020404B
:1001D0008040E1F700C000002196CB30D10561F7E7
:1001E000DDCF2A9A9BB1282F22952F70907F922BDA
:1001F0009BB92A989BB1907F9BB995E09A95F1F7AE
:1002000000002A9A9BB18F70907F892B8BB92A9816
:1002100085E08A95F1F700002A988BB1807F8BB931
:100220008FE39FE10197F1F700C000000895289A3D
:100230000E94F100289887EC90E00197F1F700C048
:100240000000089581E00E94F10008958FE08AB9CE
:1002500087E284B985B185B92FEF80E792E021501C
:1002600080409040E1F700C0000082E20E94F1006F
:1002700088E20E94F1008FE00E94F10081E00E947C
:10028000F1000895982F990F990F890F8C5E87BD03
:10029000089584B5816084BD569A84B5806884BD14
:1002A00084E085BD17BC08951F920F920FB60F9280
:1002B00011240F900FBE0F901F901895F894FFCF48
:00000001FF
