:100000000C9434000C9451000C9451000C94510049
:100010000C949F000C9451000C9451000C945100CE
:100020000C9451000C9451000C9451000C9451000C
:100030000C9451000C9451000C9451000C945100FC
:100040000C9465000C9451000C9451000C945100D8
:100050000C9451000C9451000C9451000C945100DC
:100060000C9451000C94510011241FBECFEFD8E026
:10007000DEBFCDBF11E0A0E0B1E0E8ECF2E002C0ED
:1000800005900D92A030B107D9F721E0A0E0B1E0D2
:1000900001C01D92A330B207E1F70E94B8000C9492
:1000A00062010C94000088B18F6088B982E080936F
:1000B0006800ECE6F0E080818F60808387E08BBB96
:1000C00014BC95E095BD85BB08951F920F920FB6A5
:1000D0000F9211248F939F93809100018F5F8093E3
:1000E000000180910001853019F596B180910101E0
:1000F00098131AC0309904C081E08093020114C0A3
:10010000319904C082E0809302010EC0329904C08C
:1001100083E08093020108C0339904C084E0809397
:10012000020102C0109202011092000110926E00B2
:100130009F918F910F900FBE0F901F9018951F9257
:100140000F920FB60F9211248F9386B18F3041F02A
:1001500086B1809301011092000181E080936E00CE
:100160008F910F900FBE0F901F901895259A0895AC
:100170000E9453000E94B60078940E94E600FDCFD2
:100180002A9A9BB1282F22952F70907F922B9BB992
:100190002A989BB1907F9BB995E09A95F1F7000062
:1001A0002A9A9BB18F70907F892B8BB92A9885E012
:1001B0008A95F1F700002A988BB1807F8BB98FE385
:1001C0009FE10197F1F700C0000008958FE08AB920
:1001D00087E284B985B185B940E054E264EF70E00C
:1001E00080E895E20E9417012FEF80E792E021500E
:1001F00080409040E1F700C0000082E20E94C00011
:1002000088E20E94C00081E00E94C0008FE00E944E
:10021000C00095B180E2892785B92FEF87EA91E682
:10022000215080409040E1F700C0000008959C01FB
:10023000CB01BA01689413F89695879577956795E1
:100240001694D1F740E050E00E944001BA01A901A4
:100250004150510961097109BB27A72F962F852F9E
:100260008093C5004093C40088E18093C1008EE074
:100270008093C200E0ECF0E080818D7F8083089560
:10028000A1E21A2EAA1BBB1BFD010DC0AA1FBB1F9A
:10029000EE1FFF1FA217B307E407F50720F0A21B0C
:1002A000B30BE40BF50B661F771F881F991F1A9479
:1002B00069F760957095809590959B01AC01BD01A3
:0802C000CF010895F894FFCF6F
:00000001FF
